:100000000C9434000C9449000C9449000C94490061
:100010000C9449000C9449000C9449000C9449003C
:100020000C9449000C9449000C9449000C9449002C
:100030000C9449000C9449000C9449000C9449001C
:100040000C9449000C9449000C9449000C9449000C
:100050000C9449000C9449000C9449000C944900FC
:100060000C9449000C94490011241FBECFEFD8E036
:10007000DEBFCDBF11E0A0E0B1E0EEE8F1E002C0EC
:1000800005900D92AC34B107D9F70E94A8000C94EA
:10009000C5000C94000084EC99E025EF30E0F901F4
:1000A0003197F1F70197D9F784EC99E025EF30E02B
:1000B000F9013197F1F70197D9F78091C00085FFD9
:1000C000FCCF8EEF8093C6008091C00085FFFCCFEF
:1000D00081E58093C60008958FE290E09093C5007B
:1000E0008093C400E1ECF0E080818860808386E04A
:1000F0008093C2000895982F8091C00085FFFCCFA7
:100100009093C6000895FC0106C08091C00085FF51
:10011000FCCF9093C60091919923B9F70895982F39
:100120008091C00085FFFCCF8EEF8093C600809148
:10013000C00085FFFCCF85E48093C6008091C0009D
:1001400085FFFCCF9093C600CB010E9483000895E9
:100150008FE290E09093C5008093C4008091C1002D
:1001600088608093C10086E08093C2000E944B00AB
:1001700080E090E060E071E00E948F0084E190E018
:0E01800060E071E00E948F00FFCFF894FFCF87
:10018E00313233343536373839303132333435361F
:10019E0037383930003E3E205553432045453435DF
:1001AE00394C203C3C003E3E2061743332382D36B3
:1001BE002E63203C3C3C002D2D20417072696C203A
:0C01CE0031312C2032303131202D2D0039
:00000001FF
